{
  "_format": "hh-sol-artifact-1",
  "contractName": "Agent",
  "sourceName": "contracts/Agent.sol",
  "abi": [
    {
      "constant": true,
      "inputs": [
        {
          "name": "addr",
          "type": "address"
        }
      ],
      "name": "get_accessed_doctorlist_for_patient",
      "outputs": [
        {
          "name": "",
          "type": "address[]"
        }
      ],
      "payable": false,
      "stateMutability": "view",
      "type": "function"
    },
    {
      "constant": false,
      "inputs": [
        {
          "name": "paddr",
          "type": "address"
        },
        {
          "name": "daddr",
          "type": "address"
        }
      ],
      "name": "remove_patient",
      "outputs": [],
      "payable": false,
      "stateMutability": "nonpayable",
      "type": "function"
    },
    {
      "constant": true,
      "inputs": [
        {
          "name": "",
          "type": "uint256"
        }
      ],
      "name": "doctorList",
      "outputs": [
        {
          "name": "",
          "type": "address"
        }
      ],
      "payable": false,
      "stateMutability": "view",
      "type": "function"
    },
    {
      "constant": true,
      "inputs": [
        {
          "name": "paddr",
          "type": "address"
        },
        {
          "name": "daddr",
          "type": "address"
        }
      ],
      "name": "get_patient_doctor_name",
      "outputs": [
        {
          "name": "",
          "type": "string"
        },
        {
          "name": "",
          "type": "string"
        }
      ],
      "payable": false,
      "stateMutability": "view",
      "type": "function"
    },
    {
      "constant": false,
      "inputs": [
        {
          "name": "daddr",
          "type": "address"
        }
      ],
      "name": "revoke_access",
      "outputs": [],
      "payable": true,
      "stateMutability": "payable",
      "type": "function"
    },
    {
      "constant": true,
      "inputs": [
        {
          "name": "addr",
          "type": "address"
        }
      ],
      "name": "get_patient",
      "outputs": [
        {
          "name": "",
          "type": "string"
        },
        {
          "name": "",
          "type": "uint256"
        },
        {
          "name": "",
          "type": "uint256[]"
        },
        {
          "name": "",
          "type": "address"
        },
        {
          "name": "",
          "type": "string"
        }
      ],
      "payable": false,
      "stateMutability": "view",
      "type": "function"
    },
    {
      "constant": true,
      "inputs": [
        {
          "name": "addr",
          "type": "address"
        }
      ],
      "name": "get_doctor",
      "outputs": [
        {
          "name": "",
          "type": "string"
        },
        {
          "name": "",
          "type": "uint256"
        }
      ],
      "payable": false,
      "stateMutability": "view",
      "type": "function"
    },
    {
      "constant": true,
      "inputs": [
        {
          "name": "paddr",
          "type": "address"
        }
      ],
      "name": "get_hash",
      "outputs": [
        {
          "name": "",
          "type": "string"
        }
      ],
      "payable": false,
      "stateMutability": "view",
      "type": "function"
    },
    {
      "constant": true,
      "inputs": [
        {
          "name": "",
          "type": "uint256"
        }
      ],
      "name": "patientList",
      "outputs": [
        {
          "name": "",
          "type": "address"
        }
      ],
      "payable": false,
      "stateMutability": "view",
      "type": "function"
    },
    {
      "constant": false,
      "inputs": [
        {
          "name": "addr",
          "type": "address"
        }
      ],
      "name": "permit_access",
      "outputs": [],
      "payable": true,
      "stateMutability": "payable",
      "type": "function"
    },
    {
      "constant": true,
      "inputs": [],
      "name": "get_doctor_list",
      "outputs": [
        {
          "name": "",
          "type": "address[]"
        }
      ],
      "payable": false,
      "stateMutability": "view",
      "type": "function"
    },
    {
      "constant": true,
      "inputs": [
        {
          "name": "addr",
          "type": "address"
        }
      ],
      "name": "get_accessed_patientlist_for_doctor",
      "outputs": [
        {
          "name": "",
          "type": "address[]"
        }
      ],
      "payable": false,
      "stateMutability": "view",
      "type": "function"
    },
    {
      "constant": true,
      "inputs": [],
      "name": "get_patient_list",
      "outputs": [
        {
          "name": "",
          "type": "address[]"
        }
      ],
      "payable": false,
      "stateMutability": "view",
      "type": "function"
    },
    {
      "constant": false,
      "inputs": [
        {
          "name": "_name",
          "type": "string"
        },
        {
          "name": "_age",
          "type": "uint256"
        },
        {
          "name": "_designation",
          "type": "uint256"
        },
        {
          "name": "_hash",
          "type": "string"
        }
      ],
      "name": "add_agent",
      "outputs": [
        {
          "name": "",
          "type": "string"
        }
      ],
      "payable": false,
      "stateMutability": "nonpayable",
      "type": "function"
    },
    {
      "constant": false,
      "inputs": [
        {
          "name": "paddr",
          "type": "address"
        },
        {
          "name": "_diagnosis",
          "type": "uint256"
        },
        {
          "name": "_hash",
          "type": "string"
        }
      ],
      "name": "insurance_claim",
      "outputs": [],
      "payable": false,
      "stateMutability": "nonpayable",
      "type": "function"
    },
    {
      "anonymous": false,
      "inputs": [
        {
          "indexed": false,
          "name": "name",
          "type": "string"
        },
        {
          "indexed": false,
          "name": "age",
          "type": "uint256"
        },
        {
          "indexed": false,
          "name": "designation",
          "type": "uint256"
        }
      ],
      "name": "AgentAdded",
      "type": "event"
    },
    {
      "anonymous": false,
      "inputs": [
        {
          "indexed": false,
          "name": "doctor",
          "type": "address"
        },
        {
          "indexed": false,
          "name": "patient",
          "type": "address"
        }
      ],
      "name": "AccessGranted",
      "type": "event"
    },
    {
      "anonymous": false,
      "inputs": [
        {
          "indexed": false,
          "name": "doctor",
          "type": "address"
        },
        {
          "indexed": false,
          "name": "patient",
          "type": "address"
        }
      ],
      "name": "AccessRevoked",
      "type": "event"
    },
    {
      "anonymous": false,
      "inputs": [
        {
          "indexed": false,
          "name": "doctor",
          "type": "address"
        },
        {
          "indexed": false,
          "name": "patient",
          "type": "address"
        },
        {
          "indexed": false,
          "name": "diagnosis",
          "type": "uint256"
        },
        {
          "indexed": false,
          "name": "record",
          "type": "string"
        }
      ],
      "name": "InsuranceClaimProcessed",
      "type": "event"
    }
  ],
  "bytecode": "0x608060405234801561001057600080fd5b50611b92806100206000396000f3fe6080604052600436106100d3577c010000000000000000000000000000000000000000000000000000000060003504627ee3ce81146100d85780630362fe9b1461015b578063127ca4b4146101985780631e3fc3b8146101de57806327b1dcee146102f75780634042d2d41461031d57806356c98c48146104925780637e1519ce14610544578063babb1d41146105ec578063bcffb7ca14610616578063c39e96351461063c578063dd44176b14610651578063e81ac05414610684578063f02d90a414610699578063f24be9e7146107df575b600080fd5b3480156100e457600080fd5b5061010b600480360360208110156100fb57600080fd5b5035600160a060020a03166108a7565b60408051602080825283518183015283519192839290830191858101910280838360005b8381101561014757818101518382015260200161012f565b505050509050019250505060405180910390f35b34801561016757600080fd5b506101966004803603604081101561017e57600080fd5b50600160a060020a0381358116916020013516610920565b005b3480156101a457600080fd5b506101c2600480360360208110156101bb57600080fd5b50356109b3565b60408051600160a060020a039092168252519081900360200190f35b3480156101ea57600080fd5b506102196004803603604081101561020157600080fd5b50600160a060020a03813581169160200135166109db565b604051808060200180602001838103835285818151815260200191508051906020019080838360005b8381101561025a578181015183820152602001610242565b50505050905090810190601f1680156102875780820380516001836020036101000a031916815260200191505b50838103825284518152845160209182019186019080838360005b838110156102ba5781810151838201526020016102a2565b50505050905090810190601f1680156102e75780820380516001836020036101000a031916815260200191505b5094505050505060405180910390f35b6101966004803603602081101561030d57600080fd5b5035600160a060020a0316610b2c565b34801561032957600080fd5b506103506004803603602081101561034057600080fd5b5035600160a060020a0316610bb7565b60405180806020018681526020018060200185600160a060020a0316600160a060020a0316815260200180602001848103845289818151815260200191508051906020019080838360005b838110156103b357818101518382015260200161039b565b50505050905090810190601f1680156103e05780820380516001836020036101000a031916815260200191505b508481038352875181528751602091820191808a01910280838360005b838110156104155781810151838201526020016103fd565b50505050905001848103825285818151815260200191508051906020019080838360005b83811015610451578181015183820152602001610439565b50505050905090810190601f16801561047e5780820380516001836020036101000a031916815260200191505b509850505050505050505060405180910390f35b34801561049e57600080fd5b506104c5600480360360208110156104b557600080fd5b5035600160a060020a0316610d7a565b6040518080602001838152602001828103825284818151815260200191508051906020019080838360005b838110156105085781810151838201526020016104f0565b50505050905090810190601f1680156105355780820380516001836020036101000a031916815260200191505b50935050505060405180910390f35b34801561055057600080fd5b506105776004803603602081101561056757600080fd5b5035600160a060020a0316610e33565b6040805160208082528351818301528351919283929083019185019080838360005b838110156105b1578181015183820152602001610599565b50505050905090810190601f1680156105de5780820380516001836020036101000a031916815260200191505b509250505060405180910390f35b3480156105f857600080fd5b506101c26004803603602081101561060f57600080fd5b5035610ed7565b6101966004803603602081101561062c57600080fd5b5035600160a060020a0316610ee5565b34801561064857600080fd5b5061010b611020565b34801561065d57600080fd5b5061010b6004803603602081101561067457600080fd5b5035600160a060020a0316611083565b34801561069057600080fd5b5061010b6110fa565b3480156106a557600080fd5b50610577600480360360808110156106bc57600080fd5b8101906020810181356401000000008111156106d757600080fd5b8201836020820111156106e957600080fd5b8035906020019184600183028401116401000000008311171561070b57600080fd5b91908080601f016020809104026020016040519081016040528093929190818152602001838380828437600092019190915250929584359560208601359591945092506060810191506040013564010000000081111561076a57600080fd5b82018360208201111561077c57600080fd5b8035906020019184600183028401116401000000008311171561079e57600080fd5b91908080601f01602080910402602001604051908101604052809392919081815260200183838082843760009201919091525092955061115a945050505050565b3480156107eb57600080fd5b506101966004803603606081101561080257600080fd5b600160a060020a038235169160208101359181019060608101604082013564010000000081111561083257600080fd5b82018360208201111561084457600080fd5b8035906020019184600183028401116401000000008311171561086657600080fd5b91908080601f01602080910402602001604051908101604052809392919081815260200183838082843760009201919091525092955061161f945050505050565b600160a060020a03811660009081526003602090815260409182902060020180548351818402810184019094528084526060939283018282801561091457602002820191906000526020600020905b8154600160a060020a031681526001909101906020018083116108f6575b50505050509050919050565b600160a060020a0381166000908152600460205260409020610945906002018361183d565b600160a060020a038216600090815260036020526040902061096a906002018261183d565b60408051600160a060020a0380841682528416602082015281517f825c8be24eb0df19500f63e86c29e7d0d951e73056b889b891d85e40938d9b6e929181900390910190a15050565b60028054829081106109c157fe5b600091825260209091200154600160a060020a0316905081565b600160a060020a038281166000908152600360209081526040808320938516835260048252918290208354835160026001831615610100026000190190921691909104601f810184900484028201840190945283815260609485949093849190830182828015610a8c5780601f10610a6157610100808354040283529160200191610a8c565b820191906000526020600020905b815481529060010190602001808311610a6f57829003601f168201915b5050845460408051602060026001851615610100026000190190941693909304601f810184900484028201840190925281815295975086945092508401905082828015610b1a5780601f10610aef57610100808354040283529160200191610b1a565b820191906000526020600020905b815481529060010190602001808311610afd57829003601f168201915b50505050509050915091509250929050565b610b363382610920565b6040513390600090671bc16d674ec800009082818181858883f19350505050158015610b66573d6000803e3d6000fd5b506000805460011901905560408051600160a060020a038316815233602082015281517f825c8be24eb0df19500f63e86c29e7d0d951e73056b889b891d85e40938d9b6e929181900390910190a150565b600160a060020a038181166000908152600360208181526040808420600180820154600585528387205486865283548551600261010095831615959095026000190190911693909304601f810187900487028401870190955284835260609889978997899794959187019493909216926004870192879190830182828015610c805780601f10610c5557610100808354040283529160200191610c80565b820191906000526020600020905b815481529060010190602001808311610c6357829003601f168201915b5050505050945082805480602002602001604051908101604052809291908181526020018280548015610cd257602002820191906000526020600020905b815481526020019060010190808311610cbe575b5050845460408051602060026001851615610100026000190190941693909304601f810184900484028201840190925281815295985086945092508401905082828015610d605780601f10610d3557610100808354040283529160200191610d60565b820191906000526020600020905b815481529060010190602001808311610d4357829003601f168201915b505050505090509450945094509450945091939590929450565b600160a060020a038116600090815260046020908152604080832060018082015482548451600293821615610100026000190190911692909204601f81018690048602830186019094528382526060959492939092849190830182828015610e235780601f10610df857610100808354040283529160200191610e23565b820191906000526020600020905b815481529060010190602001808311610e0657829003601f168201915b5050505050915091509150915091565b600160a060020a03811660009081526003602090815260409182902060040180548351601f60026000196101006001861615020190931692909204918201849004840281018401909452808452606093928301828280156109145780601f10610eaa57610100808354040283529160200191610914565b820191906000526020600020905b815481529060010190602001808311610eb85750939695505050505050565b60018054829081106109c157fe5b671bc16d674ec800003414610f6a576040805160e560020a62461bcd02815260206004820152602c60248201527f596f75206d757374207061792065786163746c79203220657468657220746f2060448201527f6772616e74206163636573730000000000000000000000000000000000000000606482015290519081900360840190fd5b6000805460029081018255600160a060020a03831680835260046020908152604080852084018054600181810183559187528387200180543373ffffffffffffffffffffffffffffffffffffffff19918216811790925581885260038552838820909601805492830181558752958390200180549094168317909355825191825281019290925280517f9f520b3bfc56d06f7065d10b4683b3f57ac8895d5026cd176dee95ce1454cb8d9281900390910190a150565b6060600280548060200260200160405190810160405280929190818152602001828054801561107857602002820191906000526020600020905b8154600160a060020a0316815260019091019060200180831161105a575b505050505090505b90565b600160a060020a03811660009081526004602090815260409182902060020180548351818402810184019094528084526060939283018282801561091457602002820191906000526020600020908154600160a060020a031681526001909101906020018083116108f65750505050509050919050565b6060600180548060200260200160405190810160405280929190818152602001828054801561107857602002820191906000526020600020908154600160a060020a0316815260019091019060200180831161105a575050505050905090565b835160609033906000106111de576040805160e560020a62461bcd02815260206004820152602760248201527f4e6f6d20696e76616c696465206f7520696e666f726d6174696f6e73206d616e60448201527f7175616e74657300000000000000000000000000000000000000000000000000606482015290519081900360840190fd5b60008511611236576040805160e560020a62461bcd02815260206004820152600c60248201527f41676520696e76616c6964650000000000000000000000000000000000000000604482015290519081900360640190fd5b83151561144d5733600090815260036020526040902060010154156112a5576040805160e560020a62461bcd02815260206004820152601660248201527f50617469656e742064c3a96ac3a020616a6f7574c3a900000000000000000000604482015290519081900360640190fd5b6112ad6119c5565b86815260208082018790526080820185905233600090815260038252604090208251805184936112e19284929101906119f5565b506020828101516001830155604083015180516113049260028501920190611a73565b5060608201518051611320916003840191602090910190611ae1565b506080820151805161133c9160048401916020909101906119f5565b505060018054808201825560009182527fb10e2d527612073b26eecdfd717e6a320cf44b4afac2b0732d9fcbe2b7fa0cf601805473ffffffffffffffffffffffffffffffffffffffff1916600160a060020a0386161790556040805160208082018b905291810189905260608082528b51908201528a517f3cd8fe4ab89aa4e64be6ebbbf265c6d982523c5dd70e048e6b11e5e6ee04c38d94508b938b938b939283926080840192880191908190849084905b838110156114075781810151838201526020016113ef565b50505050905090810190601f1680156114345780820380516001836020036101000a031916815260200191505b5094505050505060405180910390a18692505050611617565b83600114156115c757600160a060020a038116600090815260046020526040902060010154156114c7576040805160e560020a62461bcd02815260206004820152601660248201527f446f63746575722064c3a96ac3a020616a6f7574c3a900000000000000000000604482015290519081900360640190fd5b600160a060020a0381166000908152600460209081526040909120875190916114f49183918a01906119f5565b50600181810187905560028054918201815560009081527f405787fa12a823e0f2b7631cc41b3ba8828b3321ca811111fa75cd3aa3bb5ace909101805473ffffffffffffffffffffffffffffffffffffffff1916600160a060020a0385161790556040805160208082018a905291810188905260608082528a519082015289517f3cd8fe4ab89aa4e64be6ebbbf265c6d982523c5dd70e048e6b11e5e6ee04c38d938b938b938b9390928392608084019290880191819084908490838110156114075781810151838201526020016113ef565b6040805160e560020a62461bcd02815260206004820152601560248201527f44c3a97369676e6174696f6e20696e76616c6964650000000000000000000000604482015290519081900360640190fd5b949350505050565b6000805b336000908152600460205260409020600201548110156117a5573360009081526004602052604090206002018054600160a060020a03871691908390811061166757fe5b600091825260209091200154600160a060020a0316141561179d576040513390600090671bc16d674ec800009082818181858883f193505050501580156116b2573d6000803e3d6000fd5b5060026000808282540392505081905550600191507f0abb366656f6c95093f6431165d969bc675b227c4ae8fed420740bc8c495827d338686866040518085600160a060020a0316600160a060020a0316815260200184600160a060020a0316600160a060020a0316815260200183815260200180602001828103825283818151815260200191508051906020019080838360005b8381101561175f578181015183820152602001611747565b50505050905090810190601f16801561178c5780820380516001836020036101000a031916815260200191505b509550505050505060405180910390a15b600101611623565b50801515611823576040805160e560020a62461bcd02815260206004820152602960248201527f50617469656e74206e6f7420666f756e6420696e20646f63746f72277320616360448201527f63657373206c6973740000000000000000000000000000000000000000000000606482015290519081900360840190fd5b61182d8483611991565b6118378433610920565b50505050565b600080805b84548110156118925783600160a060020a0316858281548110151561186357fe5b600091825260209091200154600160a060020a0316141561188a5780925060019150611892565b600101611842565b508015156118ea576040805160e560020a62461bcd02815260206004820152601a60248201527f456c656d656e74206e6f7420666f756e6420696e206172726179000000000000604482015290519081900360640190fd5b8354849060001981019081106118fc57fe5b6000918252602090912001548454600160a060020a039091169085908490811061192257fe5b9060005260206000200160006101000a815481600160a060020a030219169083600160a060020a0316021790555083805480151561195c57fe5b6000828152602090208101600019908101805473ffffffffffffffffffffffffffffffffffffffff1916905501905550505050565b600160a060020a038216600090815260036020908152604090912082516119c0926004909201918401906119f5565b505050565b60a06040519081016040528060608152602001600081526020016060815260200160608152602001606081525090565b828054600181600116156101000203166002900490600052602060002090601f016020900481019282601f10611a3657805160ff1916838001178555611a63565b82800160010185558215611a63579182015b82811115611a63578251825591602001919060010190611a48565b50611a6f929150611b1b565b5090565b828054828255906000526020600020908101928215611ad5579160200282015b82811115611ad5578251825473ffffffffffffffffffffffffffffffffffffffff1916600160a060020a03909116178255602090920191600190910190611a93565b50611a6f929150611b35565b828054828255906000526020600020908101928215611a635791602002820182811115611a63578251825591602001919060010190611a48565b61108091905b80821115611a6f5760008155600101611b21565b61108091905b80821115611a6f57805473ffffffffffffffffffffffffffffffffffffffff19168155600101611b3b56fea165627a7a72305820abacc3456b6df38381ee71d5f7ff8f5ee34b9eb934b36712beefb6818b2b63490029",
  "linkReferences": {},
  "deployedLinkReferences": {}
}